{
  "contractName": "Bidder",
  "abi": [
    {
      "constant": true,
      "inputs": [],
      "name": "oracle",
      "outputs": [
        {
          "name": "",
          "type": "address"
        }
      ],
      "payable": false,
      "stateMutability": "view",
      "type": "function",
      "signature": "0x7dc0d1d0"
    },
    {
      "constant": true,
      "inputs": [],
      "name": "owner",
      "outputs": [
        {
          "name": "",
          "type": "address"
        }
      ],
      "payable": false,
      "stateMutability": "view",
      "type": "function",
      "signature": "0x8da5cb5b"
    },
    {
      "constant": true,
      "inputs": [
        {
          "name": "",
          "type": "uint256"
        }
      ],
      "name": "players",
      "outputs": [
        {
          "name": "",
          "type": "address"
        }
      ],
      "payable": false,
      "stateMutability": "view",
      "type": "function",
      "signature": "0xf71d96cb"
    },
    {
      "inputs": [
        {
          "name": "oracleAdr",
          "type": "address"
        }
      ],
      "payable": false,
      "stateMutability": "nonpayable",
      "type": "constructor",
      "signature": "constructor"
    },
    {
      "anonymous": false,
      "inputs": [
        {
          "indexed": false,
          "name": "loser",
          "type": "address"
        }
      ],
      "name": "Loser",
      "type": "event",
      "signature": "0x190d4f1249f2e21343a1c0910c21ea36d8a8686a1596352ecc15c4d26a988dcd"
    },
    {
      "anonymous": false,
      "inputs": [
        {
          "indexed": false,
          "name": "winner",
          "type": "address"
        }
      ],
      "name": "Winner",
      "type": "event",
      "signature": "0x745c90b656b4aafe296c8ca35aeacfe56cb96c90e1d320e5da643fff1051b6c0"
    },
    {
      "constant": false,
      "inputs": [
        {
          "name": "name",
          "type": "string"
        },
        {
          "name": "bet",
          "type": "bool"
        }
      ],
      "name": "createPlayer",
      "outputs": [],
      "payable": true,
      "stateMutability": "payable",
      "type": "function",
      "signature": "0xf8f4bbba"
    },
    {
      "constant": true,
      "inputs": [],
      "name": "getPlayerCount",
      "outputs": [
        {
          "name": "",
          "type": "uint256"
        }
      ],
      "payable": false,
      "stateMutability": "view",
      "type": "function",
      "signature": "0xc2e52206"
    },
    {
      "constant": true,
      "inputs": [
        {
          "name": "index",
          "type": "uint256"
        }
      ],
      "name": "getPlayer",
      "outputs": [
        {
          "name": "adr",
          "type": "address"
        },
        {
          "name": "betAmount",
          "type": "uint256"
        },
        {
          "name": "currentOracleRate",
          "type": "uint256"
        },
        {
          "name": "name",
          "type": "string"
        },
        {
          "name": "betChoide",
          "type": "bool"
        }
      ],
      "payable": false,
      "stateMutability": "view",
      "type": "function",
      "signature": "0xe55ae4e8"
    },
    {
      "constant": false,
      "inputs": [],
      "name": "closeMatch",
      "outputs": [],
      "payable": false,
      "stateMutability": "nonpayable",
      "type": "function",
      "signature": "0xc31af893"
    },
    {
      "constant": false,
      "inputs": [],
      "name": "depositFund",
      "outputs": [],
      "payable": true,
      "stateMutability": "payable",
      "type": "function",
      "signature": "0x8d0d8cb6"
    },
    {
      "constant": false,
      "inputs": [],
      "name": "withdrawFund",
      "outputs": [],
      "payable": false,
      "stateMutability": "nonpayable",
      "type": "function",
      "signature": "0xe07fa3c1"
    }
  ],
  "bytecode": "0x608060405234801561001057600080fd5b5060405160208061175e8339810180604052602081101561003057600080fd5b8101908080519060200190929190505050336000806101000a81548173ffffffffffffffffffffffffffffffffffffffff021916908373ffffffffffffffffffffffffffffffffffffffff16021790555080600160006101000a81548173ffffffffffffffffffffffffffffffffffffffff021916908373ffffffffffffffffffffffffffffffffffffffff1602179055505061168c806100d26000396000f3fe608060405260043610610099576000357c0100000000000000000000000000000000000000000000000000000000900463ffffffff1680637dc0d1d01461009e5780638d0d8cb6146100f55780638da5cb5b146100ff578063c2e5220614610156578063c31af89314610181578063e07fa3c114610198578063e55ae4e8146101af578063f71d96cb146102af578063f8f4bbba1461032a575b600080fd5b3480156100aa57600080fd5b506100b36103f1565b604051808273ffffffffffffffffffffffffffffffffffffffff1673ffffffffffffffffffffffffffffffffffffffff16815260200191505060405180910390f35b6100fd610417565b005b34801561010b57600080fd5b50610114610419565b604051808273ffffffffffffffffffffffffffffffffffffffff1673ffffffffffffffffffffffffffffffffffffffff16815260200191505060405180910390f35b34801561016257600080fd5b5061016b61043e565b6040518082815260200191505060405180910390f35b34801561018d57600080fd5b5061019661044b565b005b3480156101a457600080fd5b506101ad610471565b005b3480156101bb57600080fd5b506101e8600480360360208110156101d257600080fd5b8101908080359060200190929190505050610595565b604051808673ffffffffffffffffffffffffffffffffffffffff1673ffffffffffffffffffffffffffffffffffffffff1681526020018581526020018481526020018060200183151515158152602001828103825284818151815260200191508051906020019080838360005b83811015610270578082015181840152602081019050610255565b50505050905090810190601f16801561029d5780820380516001836020036101000a031916815260200191505b50965050505050505060405180910390f35b3480156102bb57600080fd5b506102e8600480360360208110156102d257600080fd5b8101908080359060200190929190505050610a3b565b604051808273ffffffffffffffffffffffffffffffffffffffff1673ffffffffffffffffffffffffffffffffffffffff16815260200191505060405180910390f35b6103ef6004803603604081101561034057600080fd5b810190808035906020019064010000000081111561035d57600080fd5b82018360208201111561036f57600080fd5b8035906020019184600183028401116401000000008311171561039157600080fd5b91908080601f016020809104026020016040519081016040528093929190818152602001838380828437600081840152601f19601f820116905080830192505050505050509192919290803515159060200190929190505050610a79565b005b600160009054906101000a900473ffffffffffffffffffffffffffffffffffffffff1681565b565b6000809054906101000a900473ffffffffffffffffffffffffffffffffffffffff1681565b6000600280549050905090565b6000610455610bda565b905061046081610ca0565b6002600061046e9190611076565b50565b6000809054906101000a900473ffffffffffffffffffffffffffffffffffffffff1673ffffffffffffffffffffffffffffffffffffffff163373ffffffffffffffffffffffffffffffffffffffff16141515610535576040517f08c379a00000000000000000000000000000000000000000000000000000000081526004018080602001828103825260138152602001807f556e617574686f72697a656420616374696f6e0000000000000000000000000081525060200191505060405180910390fd5b3373ffffffffffffffffffffffffffffffffffffffff166108fc3073ffffffffffffffffffffffffffffffffffffffff16319081150290604051600060405180830381858888f19350505050158015610592573d6000803e3d6000fd5b50565b6000806000606060006002868154811015156105ad57fe5b9060005260206000200160009054906101000a900473ffffffffffffffffffffffffffffffffffffffff1673ffffffffffffffffffffffffffffffffffffffff16630aca7f956040518163ffffffff167c010000000000000000000000000000000000000000000000000000000002815260040160206040518083038186803b15801561063957600080fd5b505afa15801561064d573d6000803e3d6000fd5b505050506040513d602081101561066357600080fd5b810190808051906020019092919050505060028781548110151561068357fe5b9060005260206000200160009054906101000a900473ffffffffffffffffffffffffffffffffffffffff1673ffffffffffffffffffffffffffffffffffffffff1663d24257c06040518163ffffffff167c010000000000000000000000000000000000000000000000000000000002815260040160206040518083038186803b15801561070f57600080fd5b505afa158015610723573d6000803e3d6000fd5b505050506040513d602081101561073957600080fd5b810190808051906020019092919050505060028881548110151561075957fe5b9060005260206000200160009054906101000a900473ffffffffffffffffffffffffffffffffffffffff1673ffffffffffffffffffffffffffffffffffffffff1663ac7654196040518163ffffffff167c010000000000000000000000000000000000000000000000000000000002815260040160206040518083038186803b1580156107e557600080fd5b505afa1580156107f9573d6000803e3d6000fd5b505050506040513d602081101561080f57600080fd5b810190808051906020019092919050505060028981548110151561082f57fe5b9060005260206000200160009054906101000a900473ffffffffffffffffffffffffffffffffffffffff1673ffffffffffffffffffffffffffffffffffffffff166306fdde036040518163ffffffff167c010000000000000000000000000000000000000000000000000000000002815260040160006040518083038186803b1580156108bb57600080fd5b505afa1580156108cf573d6000803e3d6000fd5b505050506040513d6000823e3d601f19601f8201168201806040525060208110156108f957600080fd5b81019080805164010000000081111561091157600080fd5b8281019050602081018481111561092757600080fd5b815185600182028301116401000000008211171561094457600080fd5b505092919050505060028a81548110151561095b57fe5b9060005260206000200160009054906101000a900473ffffffffffffffffffffffffffffffffffffffff1673ffffffffffffffffffffffffffffffffffffffff1663e0b85dcf6040518163ffffffff167c010000000000000000000000000000000000000000000000000000000002815260040160206040518083038186803b1580156109e757600080fd5b505afa1580156109fb573d6000803e3d6000fd5b505050506040513d6020811015610a1157600080fd5b81019080805190602001909291905050508494508191509450945094509450945091939590929450565b600281815481101515610a4a57fe5b906000526020600020016000915054906101000a900473ffffffffffffffffffffffffffffffffffffffff1681565b6000610a83610bda565b905060003334838686610a94611097565b808673ffffffffffffffffffffffffffffffffffffffff1673ffffffffffffffffffffffffffffffffffffffff1681526020018581526020018481526020018060200183151515158152602001828103825284818151815260200191508051906020019080838360005b83811015610b19578082015181840152602081019050610afe565b50505050905090810190601f168015610b465780820380516001836020036101000a031916815260200191505b509650505050505050604051809103906000f080158015610b6b573d6000803e3d6000fd5b50905060028190806001815401808255809150509060018203906000526020600020016000909192909190916101000a81548173ffffffffffffffffffffffffffffffffffffffff021916908373ffffffffffffffffffffffffffffffffffffffff1602179055505050505050565b6000600160009054906101000a900473ffffffffffffffffffffffffffffffffffffffff1673ffffffffffffffffffffffffffffffffffffffff16635ef9cb4f6040518163ffffffff167c010000000000000000000000000000000000000000000000000000000002815260040160206040518083038186803b158015610c6057600080fd5b505afa158015610c74573d6000803e3d6000fd5b505050506040513d6020811015610c8a57600080fd5b8101908080519060200190929190505050905090565b60008090505b600280549050811015611072576000600282815481101515610cc457fe5b9060005260206000200160009054906101000a900473ffffffffffffffffffffffffffffffffffffffff1673ffffffffffffffffffffffffffffffffffffffff166301e3eb27846040518263ffffffff167c01000000000000000000000000000000000000000000000000000000000281526004018082815260200191505060206040518083038186803b158015610d5b57600080fd5b505afa158015610d6f573d6000803e3d6000fd5b505050506040513d6020811015610d8557600080fd5b810190808051906020019092919050505090506000600283815481101515610da957fe5b9060005260206000200160009054906101000a900473ffffffffffffffffffffffffffffffffffffffff1673ffffffffffffffffffffffffffffffffffffffff16630aca7f956040518163ffffffff167c010000000000000000000000000000000000000000000000000000000002815260040160206040518083038186803b158015610e3557600080fd5b505afa158015610e49573d6000803e3d6000fd5b505050506040513d6020811015610e5f57600080fd5b810190808051906020019092919050505090508115610fff578073ffffffffffffffffffffffffffffffffffffffff166108fc600285815481101515610ea157fe5b9060005260206000200160009054906101000a900473ffffffffffffffffffffffffffffffffffffffff1673ffffffffffffffffffffffffffffffffffffffff1663d24257c06040518163ffffffff167c010000000000000000000000000000000000000000000000000000000002815260040160206040518083038186803b158015610f2d57600080fd5b505afa158015610f41573d6000803e3d6000fd5b505050506040513d6020811015610f5757600080fd5b81019080805190602001909291905050506002029081150290604051600060405180830381858888f19350505050158015610f96573d6000803e3d6000fd5b507f745c90b656b4aafe296c8ca35aeacfe56cb96c90e1d320e5da643fff1051b6c081604051808273ffffffffffffffffffffffffffffffffffffffff1673ffffffffffffffffffffffffffffffffffffffff16815260200191505060405180910390a1611063565b7f190d4f1249f2e21343a1c0910c21ea36d8a8686a1596352ecc15c4d26a988dcd81604051808273ffffffffffffffffffffffffffffffffffffffff1673ffffffffffffffffffffffffffffffffffffffff16815260200191505060405180910390a15b50508080600101915050610ca6565b5050565b508054600082559060005260206000209081019061109491906110a7565b50565b604051610594806110cd83390190565b6110c991905b808211156110c55760008160009055506001016110ad565b5090565b9056fe608060405234801561001057600080fd5b50604051610594380380610594833981018060405260a081101561003357600080fd5b81019080805190602001909291908051906020019092919080519060200190929190805164010000000081111561006957600080fd5b8281019050602081018481111561007f57600080fd5b815185600182028301116401000000008211171561009c57600080fd5b505092919060200180519060200190929190505050846000806101000a81548173ffffffffffffffffffffffffffffffffffffffff021916908373ffffffffffffffffffffffffffffffffffffffff1602179055508360018190555082600281905550816003908051906020019061011592919061013a565b5080600460006101000a81548160ff02191690831515021790555050505050506101df565b828054600181600116156101000203166002900490600052602060002090601f016020900481019282601f1061017b57805160ff19168380011785556101a9565b828001600101855582156101a9579182015b828111156101a857825182559160200191906001019061018d565b5b5090506101b691906101ba565b5090565b6101dc91905b808211156101d85760008160009055506001016101c0565b5090565b90565b6103a6806101ee6000396000f3fe608060405260043610610078576000357c0100000000000000000000000000000000000000000000000000000000900463ffffffff16806301e3eb271461007d57806306fdde03146100d05780630aca7f9514610160578063ac765419146101b7578063d24257c0146101e2578063e0b85dcf1461020d575b600080fd5b34801561008957600080fd5b506100b6600480360360208110156100a057600080fd5b810190808035906020019092919050505061023c565b604051808215151515815260200191505060405180910390f35b3480156100dc57600080fd5b506100e5610298565b6040518080602001828103825283818151815260200191508051906020019080838360005b8381101561012557808201518184015260208101905061010a565b50505050905090810190601f1680156101525780820380516001836020036101000a031916815260200191505b509250505060405180910390f35b34801561016c57600080fd5b50610175610336565b604051808273ffffffffffffffffffffffffffffffffffffffff1673ffffffffffffffffffffffffffffffffffffffff16815260200191505060405180910390f35b3480156101c357600080fd5b506101cc61035b565b6040518082815260200191505060405180910390f35b3480156101ee57600080fd5b506101f7610361565b6040518082815260200191505060405180910390f35b34801561021957600080fd5b50610222610367565b604051808215151515815260200191505060405180910390f35b60008160025411801561025c5750600460009054906101000a900460ff16155b8061028057508160025410801561027f5750600460009054906101000a900460ff165b5b1561028e5760019050610293565b600090505b919050565b60038054600181600116156101000203166002900480601f01602080910402602001604051908101604052809291908181526020018280546001816001161561010002031660029004801561032e5780601f106103035761010080835404028352916020019161032e565b820191906000526020600020905b81548152906001019060200180831161031157829003601f168201915b505050505081565b6000809054906101000a900473ffffffffffffffffffffffffffffffffffffffff1681565b60025481565b60015481565b600460009054906101000a900460ff168156fea165627a7a72305820cfe48cf39272c9576bb72ad4844dc869fd032bbd847e862f268090640ff841770029a165627a7a7230582005d5537ec46322fa7572edf8710457589050d95cfa1973a417a732c0ab875cb20029",
  "source": "pragma solidity <0.6.0;\n\nimport \"./Oracle.sol\";\nimport \"./Player.sol\";\n\ncontract Bidder {\n    address public owner;\n\n    Oracle public oracle;\n\n    event Loser(address loser);\n    event Winner(address winner);\n\n    modifier restricted() {\n        require(msg.sender == owner, \"Unauthorized action\");\n        _;\n    }\n\n    Player[] public players;\n\n    constructor(address oracleAdr) public {\n        owner = msg.sender;\n        oracle = Oracle(oracleAdr);\n    }\n\n    function createPlayer(string memory name, bool bet) public payable {\n        uint oracleValue = getLatestExchangeRate();\n\n        Player tmp = new Player(\n            msg.sender,\n            msg.value,\n            oracleValue,\n            name,\n            bet\n        );\n        players.push(tmp);\n    }\n\n    function getPlayerCount() public view returns(uint) {\n        return players.length;\n    }\n\n    function getPlayer(\n        uint index\n    ) public view returns(\n        address adr,\n        uint betAmount,\n        uint currentOracleRate,\n        string memory name,\n        bool betChoide\n    ) {\n        return (\n            players[index].adr(),\n            players[index].betAmount(),\n            players[index].currentOracleRate(),\n            players[index].name(),\n            players[index].betChoice()\n        );\n    }\n\n    function closeMatch() public {\n        uint new_rate = getLatestExchangeRate();\n\n        checkWinLos(new_rate);\n\n        delete players;\n    }\n\n    function checkWinLos(uint newRate) internal {\n\n        for(uint i = 0; i < players.length; i++) {\n            bool result = players[i].checkGame(newRate);\n            address payable playerAdr =  players[i].adr();\n\n            if(result) {\n                playerAdr.transfer(2*players[i].betAmount());\n                emit Winner(playerAdr);\n            } else {\n                emit Loser(playerAdr);\n            }\n        }\n    }\n\n    function getLatestExchangeRate() internal view returns(uint) {\n        return oracle.last_exchange_rate();\n    }\n\n    function depositFund() public payable {\n        return;\n    }\n\n    function withdrawFund() public restricted {\n        return msg.sender.transfer(address(this).balance);\n    }\n}\n",
  "sourcePath": "/home/administrator/Escritorio/training_class_solidity/contracts/Bidder.sol",
  "compiler": {
    "name": "solc",
    "version": "0.5.0+commit.1d4f565a.Emscripten.clang"
  },
  "schemaVersion": "3.0.1",
  "updatedAt": "2019-02-27T14:57:57.384Z",
  "devdoc": {
    "methods": {}
  },
  "userdoc": {
    "methods": {}
  }
}