{
  "contractName": "Bidder",
  "abi": [
    {
      "constant": true,
      "inputs": [],
      "name": "oracle",
      "outputs": [
        {
          "name": "",
          "type": "address"
        }
      ],
      "payable": false,
      "stateMutability": "view",
      "type": "function",
      "signature": "0x7dc0d1d0"
    },
    {
      "constant": true,
      "inputs": [],
      "name": "owner",
      "outputs": [
        {
          "name": "",
          "type": "address"
        }
      ],
      "payable": false,
      "stateMutability": "view",
      "type": "function",
      "signature": "0x8da5cb5b"
    },
    {
      "constant": true,
      "inputs": [
        {
          "name": "",
          "type": "uint256"
        }
      ],
      "name": "players",
      "outputs": [
        {
          "name": "",
          "type": "address"
        }
      ],
      "payable": false,
      "stateMutability": "view",
      "type": "function",
      "signature": "0xf71d96cb"
    },
    {
      "inputs": [
        {
          "name": "oracleAdr",
          "type": "address"
        }
      ],
      "payable": false,
      "stateMutability": "nonpayable",
      "type": "constructor",
      "signature": "constructor"
    },
    {
      "anonymous": false,
      "inputs": [
        {
          "indexed": false,
          "name": "loser",
          "type": "address"
        }
      ],
      "name": "Loser",
      "type": "event",
      "signature": "0x190d4f1249f2e21343a1c0910c21ea36d8a8686a1596352ecc15c4d26a988dcd"
    },
    {
      "anonymous": false,
      "inputs": [
        {
          "indexed": false,
          "name": "winner",
          "type": "address"
        }
      ],
      "name": "Winner",
      "type": "event",
      "signature": "0x745c90b656b4aafe296c8ca35aeacfe56cb96c90e1d320e5da643fff1051b6c0"
    },
    {
      "anonymous": false,
      "inputs": [
        {
          "indexed": false,
          "name": "name",
          "type": "string"
        },
        {
          "indexed": false,
          "name": "adr",
          "type": "address"
        },
        {
          "indexed": false,
          "name": "oracleCurrentValue",
          "type": "uint256"
        },
        {
          "indexed": false,
          "name": "bet",
          "type": "bool"
        },
        {
          "indexed": false,
          "name": "betAmount",
          "type": "uint256"
        }
      ],
      "name": "PlayerCreated",
      "type": "event",
      "signature": "0xf9ca2f1cfda8067c58d35f95483b7388dfee50a76536d733bf37be57da77501d"
    },
    {
      "constant": false,
      "inputs": [
        {
          "name": "name",
          "type": "string"
        },
        {
          "name": "bet",
          "type": "bool"
        }
      ],
      "name": "createPlayer",
      "outputs": [],
      "payable": true,
      "stateMutability": "payable",
      "type": "function",
      "signature": "0xf8f4bbba"
    },
    {
      "constant": true,
      "inputs": [],
      "name": "getPlayerCount",
      "outputs": [
        {
          "name": "",
          "type": "uint256"
        }
      ],
      "payable": false,
      "stateMutability": "view",
      "type": "function",
      "signature": "0xc2e52206"
    },
    {
      "constant": true,
      "inputs": [
        {
          "name": "index",
          "type": "uint256"
        }
      ],
      "name": "getPlayer",
      "outputs": [
        {
          "name": "adr",
          "type": "address"
        },
        {
          "name": "betAmount",
          "type": "uint256"
        },
        {
          "name": "currentOracleRate",
          "type": "uint256"
        },
        {
          "name": "name",
          "type": "string"
        },
        {
          "name": "betChoide",
          "type": "bool"
        }
      ],
      "payable": false,
      "stateMutability": "view",
      "type": "function",
      "signature": "0xe55ae4e8"
    },
    {
      "constant": false,
      "inputs": [],
      "name": "closeMatch",
      "outputs": [],
      "payable": false,
      "stateMutability": "nonpayable",
      "type": "function",
      "signature": "0xc31af893"
    },
    {
      "constant": true,
      "inputs": [],
      "name": "getLatestExchangeRate",
      "outputs": [
        {
          "name": "",
          "type": "uint256"
        }
      ],
      "payable": false,
      "stateMutability": "view",
      "type": "function",
      "signature": "0x34d093f6"
    },
    {
      "constant": false,
      "inputs": [],
      "name": "depositFund",
      "outputs": [],
      "payable": true,
      "stateMutability": "payable",
      "type": "function",
      "signature": "0x8d0d8cb6"
    },
    {
      "constant": false,
      "inputs": [],
      "name": "withdrawFund",
      "outputs": [],
      "payable": false,
      "stateMutability": "nonpayable",
      "type": "function",
      "signature": "0xe07fa3c1"
    }
  ],
  "bytecode": "0x608060405234801561001057600080fd5b506040516020806118808339810180604052602081101561003057600080fd5b8101908080519060200190929190505050336000806101000a81548173ffffffffffffffffffffffffffffffffffffffff021916908373ffffffffffffffffffffffffffffffffffffffff16021790555080600160006101000a81548173ffffffffffffffffffffffffffffffffffffffff021916908373ffffffffffffffffffffffffffffffffffffffff160217905550506117ae806100d26000396000f3fe6080604052600436106100a4576000357c0100000000000000000000000000000000000000000000000000000000900463ffffffff16806334d093f6146100a95780637dc0d1d0146100d45780638d0d8cb61461012b5780638da5cb5b14610135578063c2e522061461018c578063c31af893146101b7578063e07fa3c1146101ce578063e55ae4e8146101e5578063f71d96cb146102e5578063f8f4bbba14610360575b600080fd5b3480156100b557600080fd5b506100be610427565b6040518082815260200191505060405180910390f35b3480156100e057600080fd5b506100e96104ed565b604051808273ffffffffffffffffffffffffffffffffffffffff1673ffffffffffffffffffffffffffffffffffffffff16815260200191505060405180910390f35b610133610513565b005b34801561014157600080fd5b5061014a610515565b604051808273ffffffffffffffffffffffffffffffffffffffff1673ffffffffffffffffffffffffffffffffffffffff16815260200191505060405180910390f35b34801561019857600080fd5b506101a161053a565b6040518082815260200191505060405180910390f35b3480156101c357600080fd5b506101cc610547565b005b3480156101da57600080fd5b506101e361056d565b005b3480156101f157600080fd5b5061021e6004803603602081101561020857600080fd5b8101908080359060200190929190505050610691565b604051808673ffffffffffffffffffffffffffffffffffffffff1673ffffffffffffffffffffffffffffffffffffffff1681526020018581526020018481526020018060200183151515158152602001828103825284818151815260200191508051906020019080838360005b838110156102a657808201518184015260208101905061028b565b50505050905090810190601f1680156102d35780820380516001836020036101000a031916815260200191505b50965050505050505060405180910390f35b3480156102f157600080fd5b5061031e6004803603602081101561030857600080fd5b8101908080359060200190929190505050610b37565b604051808273ffffffffffffffffffffffffffffffffffffffff1673ffffffffffffffffffffffffffffffffffffffff16815260200191505060405180910390f35b6104256004803603604081101561037657600080fd5b810190808035906020019064010000000081111561039357600080fd5b8201836020820111156103a557600080fd5b803590602001918460018302840111640100000000831117156103c757600080fd5b91908080601f016020809104026020016040519081016040528093929190818152602001838380828437600081840152601f19601f820116905080830192505050505050509192919290803515159060200190929190505050610b75565b005b6000600160009054906101000a900473ffffffffffffffffffffffffffffffffffffffff1673ffffffffffffffffffffffffffffffffffffffff16635ef9cb4f6040518163ffffffff167c010000000000000000000000000000000000000000000000000000000002815260040160206040518083038186803b1580156104ad57600080fd5b505afa1580156104c1573d6000803e3d6000fd5b505050506040513d60208110156104d757600080fd5b8101908080519060200190929190505050905090565b600160009054906101000a900473ffffffffffffffffffffffffffffffffffffffff1681565b565b6000809054906101000a900473ffffffffffffffffffffffffffffffffffffffff1681565b6000600280549050905090565b6000610551610427565b905061055c81610dc2565b6002600061056a9190611198565b50565b6000809054906101000a900473ffffffffffffffffffffffffffffffffffffffff1673ffffffffffffffffffffffffffffffffffffffff163373ffffffffffffffffffffffffffffffffffffffff16141515610631576040517f08c379a00000000000000000000000000000000000000000000000000000000081526004018080602001828103825260138152602001807f556e617574686f72697a656420616374696f6e0000000000000000000000000081525060200191505060405180910390fd5b3373ffffffffffffffffffffffffffffffffffffffff166108fc3073ffffffffffffffffffffffffffffffffffffffff16319081150290604051600060405180830381858888f1935050505015801561068e573d6000803e3d6000fd5b50565b6000806000606060006002868154811015156106a957fe5b9060005260206000200160009054906101000a900473ffffffffffffffffffffffffffffffffffffffff1673ffffffffffffffffffffffffffffffffffffffff16630aca7f956040518163ffffffff167c010000000000000000000000000000000000000000000000000000000002815260040160206040518083038186803b15801561073557600080fd5b505afa158015610749573d6000803e3d6000fd5b505050506040513d602081101561075f57600080fd5b810190808051906020019092919050505060028781548110151561077f57fe5b9060005260206000200160009054906101000a900473ffffffffffffffffffffffffffffffffffffffff1673ffffffffffffffffffffffffffffffffffffffff1663d24257c06040518163ffffffff167c010000000000000000000000000000000000000000000000000000000002815260040160206040518083038186803b15801561080b57600080fd5b505afa15801561081f573d6000803e3d6000fd5b505050506040513d602081101561083557600080fd5b810190808051906020019092919050505060028881548110151561085557fe5b9060005260206000200160009054906101000a900473ffffffffffffffffffffffffffffffffffffffff1673ffffffffffffffffffffffffffffffffffffffff1663ac7654196040518163ffffffff167c010000000000000000000000000000000000000000000000000000000002815260040160206040518083038186803b1580156108e157600080fd5b505afa1580156108f5573d6000803e3d6000fd5b505050506040513d602081101561090b57600080fd5b810190808051906020019092919050505060028981548110151561092b57fe5b9060005260206000200160009054906101000a900473ffffffffffffffffffffffffffffffffffffffff1673ffffffffffffffffffffffffffffffffffffffff166306fdde036040518163ffffffff167c010000000000000000000000000000000000000000000000000000000002815260040160006040518083038186803b1580156109b757600080fd5b505afa1580156109cb573d6000803e3d6000fd5b505050506040513d6000823e3d601f19601f8201168201806040525060208110156109f557600080fd5b810190808051640100000000811115610a0d57600080fd5b82810190506020810184811115610a2357600080fd5b8151856001820283011164010000000082111715610a4057600080fd5b505092919050505060028a815481101515610a5757fe5b9060005260206000200160009054906101000a900473ffffffffffffffffffffffffffffffffffffffff1673ffffffffffffffffffffffffffffffffffffffff1663e0b85dcf6040518163ffffffff167c010000000000000000000000000000000000000000000000000000000002815260040160206040518083038186803b158015610ae357600080fd5b505afa158015610af7573d6000803e3d6000fd5b505050506040513d6020811015610b0d57600080fd5b81019080805190602001909291905050508494508191509450945094509450945091939590929450565b600281815481101515610b4657fe5b906000526020600020016000915054906101000a900473ffffffffffffffffffffffffffffffffffffffff1681565b6000610b7f610427565b905060003334838686610b906111b9565b808673ffffffffffffffffffffffffffffffffffffffff1673ffffffffffffffffffffffffffffffffffffffff1681526020018581526020018481526020018060200183151515158152602001828103825284818151815260200191508051906020019080838360005b83811015610c15578082015181840152602081019050610bfa565b50505050905090810190601f168015610c425780820380516001836020036101000a031916815260200191505b509650505050505050604051809103906000f080158015610c67573d6000803e3d6000fd5b50905060028190806001815401808255809150509060018203906000526020600020016000909192909190916101000a81548173ffffffffffffffffffffffffffffffffffffffff021916908373ffffffffffffffffffffffffffffffffffffffff160217905550507ff9ca2f1cfda8067c58d35f95483b7388dfee50a76536d733bf37be57da77501d843384863460405180806020018673ffffffffffffffffffffffffffffffffffffffff1673ffffffffffffffffffffffffffffffffffffffff16815260200185815260200184151515158152602001838152602001828103825287818151815260200191508051906020019080838360005b83811015610d7e578082015181840152602081019050610d63565b50505050905090810190601f168015610dab5780820380516001836020036101000a031916815260200191505b50965050505050505060405180910390a150505050565b60008090505b600280549050811015611194576000600282815481101515610de657fe5b9060005260206000200160009054906101000a900473ffffffffffffffffffffffffffffffffffffffff1673ffffffffffffffffffffffffffffffffffffffff166301e3eb27846040518263ffffffff167c01000000000000000000000000000000000000000000000000000000000281526004018082815260200191505060206040518083038186803b158015610e7d57600080fd5b505afa158015610e91573d6000803e3d6000fd5b505050506040513d6020811015610ea757600080fd5b810190808051906020019092919050505090506000600283815481101515610ecb57fe5b9060005260206000200160009054906101000a900473ffffffffffffffffffffffffffffffffffffffff1673ffffffffffffffffffffffffffffffffffffffff16630aca7f956040518163ffffffff167c010000000000000000000000000000000000000000000000000000000002815260040160206040518083038186803b158015610f5757600080fd5b505afa158015610f6b573d6000803e3d6000fd5b505050506040513d6020811015610f8157600080fd5b810190808051906020019092919050505090508115611121578073ffffffffffffffffffffffffffffffffffffffff166108fc600285815481101515610fc357fe5b9060005260206000200160009054906101000a900473ffffffffffffffffffffffffffffffffffffffff1673ffffffffffffffffffffffffffffffffffffffff1663d24257c06040518163ffffffff167c010000000000000000000000000000000000000000000000000000000002815260040160206040518083038186803b15801561104f57600080fd5b505afa158015611063573d6000803e3d6000fd5b505050506040513d602081101561107957600080fd5b81019080805190602001909291905050506002029081150290604051600060405180830381858888f193505050501580156110b8573d6000803e3d6000fd5b507f745c90b656b4aafe296c8ca35aeacfe56cb96c90e1d320e5da643fff1051b6c081604051808273ffffffffffffffffffffffffffffffffffffffff1673ffffffffffffffffffffffffffffffffffffffff16815260200191505060405180910390a1611185565b7f190d4f1249f2e21343a1c0910c21ea36d8a8686a1596352ecc15c4d26a988dcd81604051808273ffffffffffffffffffffffffffffffffffffffff1673ffffffffffffffffffffffffffffffffffffffff16815260200191505060405180910390a15b50508080600101915050610dc8565b5050565b50805460008255906000526020600020908101906111b691906111c9565b50565b604051610594806111ef83390190565b6111eb91905b808211156111e75760008160009055506001016111cf565b5090565b9056fe608060405234801561001057600080fd5b50604051610594380380610594833981018060405260a081101561003357600080fd5b81019080805190602001909291908051906020019092919080519060200190929190805164010000000081111561006957600080fd5b8281019050602081018481111561007f57600080fd5b815185600182028301116401000000008211171561009c57600080fd5b505092919060200180519060200190929190505050846000806101000a81548173ffffffffffffffffffffffffffffffffffffffff021916908373ffffffffffffffffffffffffffffffffffffffff1602179055508360018190555082600281905550816003908051906020019061011592919061013a565b5080600460006101000a81548160ff02191690831515021790555050505050506101df565b828054600181600116156101000203166002900490600052602060002090601f016020900481019282601f1061017b57805160ff19168380011785556101a9565b828001600101855582156101a9579182015b828111156101a857825182559160200191906001019061018d565b5b5090506101b691906101ba565b5090565b6101dc91905b808211156101d85760008160009055506001016101c0565b5090565b90565b6103a6806101ee6000396000f3fe608060405260043610610078576000357c0100000000000000000000000000000000000000000000000000000000900463ffffffff16806301e3eb271461007d57806306fdde03146100d05780630aca7f9514610160578063ac765419146101b7578063d24257c0146101e2578063e0b85dcf1461020d575b600080fd5b34801561008957600080fd5b506100b6600480360360208110156100a057600080fd5b810190808035906020019092919050505061023c565b604051808215151515815260200191505060405180910390f35b3480156100dc57600080fd5b506100e5610298565b6040518080602001828103825283818151815260200191508051906020019080838360005b8381101561012557808201518184015260208101905061010a565b50505050905090810190601f1680156101525780820380516001836020036101000a031916815260200191505b509250505060405180910390f35b34801561016c57600080fd5b50610175610336565b604051808273ffffffffffffffffffffffffffffffffffffffff1673ffffffffffffffffffffffffffffffffffffffff16815260200191505060405180910390f35b3480156101c357600080fd5b506101cc61035b565b6040518082815260200191505060405180910390f35b3480156101ee57600080fd5b506101f7610361565b6040518082815260200191505060405180910390f35b34801561021957600080fd5b50610222610367565b604051808215151515815260200191505060405180910390f35b60008160025411801561025c5750600460009054906101000a900460ff16155b8061028057508160025410801561027f5750600460009054906101000a900460ff165b5b1561028e5760019050610293565b600090505b919050565b60038054600181600116156101000203166002900480601f01602080910402602001604051908101604052809291908181526020018280546001816001161561010002031660029004801561032e5780601f106103035761010080835404028352916020019161032e565b820191906000526020600020905b81548152906001019060200180831161031157829003601f168201915b505050505081565b6000809054906101000a900473ffffffffffffffffffffffffffffffffffffffff1681565b60025481565b60015481565b600460009054906101000a900460ff168156fea165627a7a72305820cfe48cf39272c9576bb72ad4844dc869fd032bbd847e862f268090640ff841770029a165627a7a7230582072a24e79f1f3338b58872cb42ec655126b867127f7501532fefb11aa622fca450029",
  "source": "pragma solidity <0.6.0;\n\nimport \"./Oracle.sol\";\nimport \"./Player.sol\";\n\ncontract Bidder {\n    address public owner;\n\n    Oracle public oracle;\n\n    event Loser(address loser);\n    event Winner(address winner);\n    event PlayerCreated(string name, address adr, uint oracleCurrentValue, bool bet, uint betAmount);\n\n    modifier restricted() {\n        require(msg.sender == owner, \"Unauthorized action\");\n        _;\n    }\n\n    Player[] public players;\n\n    constructor(address oracleAdr) public {\n        owner = msg.sender;\n        oracle = Oracle(oracleAdr);\n    }\n\n    function createPlayer(string memory name, bool bet) public payable {\n        uint oracleValue = getLatestExchangeRate();\n\n        Player tmp = new Player(\n            msg.sender,\n            msg.value,\n            oracleValue,\n            name,\n            bet\n        );\n        players.push(tmp);\n\n        emit PlayerCreated(name, msg.sender, oracleValue, bet, msg.value);\n    }\n\n    function getPlayerCount() public view returns(uint) {\n        return players.length;\n    }\n\n    function getPlayer(\n        uint index\n    ) public view returns(\n        address adr,\n        uint betAmount,\n        uint currentOracleRate,\n        string memory name,\n        bool betChoide\n    ) {\n        return (\n            players[index].adr(),\n            players[index].betAmount(),\n            players[index].currentOracleRate(),\n            players[index].name(),\n            players[index].betChoice()\n        );\n    }\n\n    function closeMatch() public {\n        uint new_rate = getLatestExchangeRate();\n\n        checkWinLos(new_rate);\n\n        delete players;\n    }\n\n    function checkWinLos(uint newRate) internal {\n\n        for(uint i = 0; i < players.length; i++) {\n            bool result = players[i].checkGame(newRate);\n            address payable playerAdr =  players[i].adr();\n\n            if(result) {\n                playerAdr.transfer(2*players[i].betAmount());\n                emit Winner(playerAdr);\n            } else {\n                emit Loser(playerAdr);\n            }\n        }\n    }\n\n    function getLatestExchangeRate() public view returns(uint) {\n        return oracle.last_exchange_rate();\n    }\n\n    function depositFund() public payable {\n        return;\n    }\n\n    function withdrawFund() public restricted {\n        return msg.sender.transfer(address(this).balance);\n    }\n}\n",
  "sourcePath": "/home/administrator/Escritorio/training_class_solidity/contracts/Bidder.sol",
  "compiler": {
    "name": "solc",
    "version": "0.5.0+commit.1d4f565a.Emscripten.clang"
  },
  "schemaVersion": "3.0.1",
  "updatedAt": "2019-02-28T10:04:51.988Z",
  "devdoc": {
    "methods": {}
  },
  "userdoc": {
    "methods": {}
  }
}