{
  "contractName": "Bidder",
  "abi": [
    {
      "constant": true,
      "inputs": [
        {
          "name": "",
          "type": "uint256"
        }
      ],
      "name": "playersArray",
      "outputs": [
        {
          "name": "name",
          "type": "string"
        },
        {
          "name": "adr",
          "type": "address"
        },
        {
          "name": "bet",
          "type": "bool"
        }
      ],
      "payable": false,
      "stateMutability": "view",
      "type": "function",
      "signature": "0x5cc1b40c"
    },
    {
      "constant": true,
      "inputs": [],
      "name": "current_bet",
      "outputs": [
        {
          "name": "",
          "type": "uint256"
        }
      ],
      "payable": false,
      "stateMutability": "view",
      "type": "function",
      "signature": "0x66bec59e"
    },
    {
      "constant": true,
      "inputs": [],
      "name": "oracle",
      "outputs": [
        {
          "name": "",
          "type": "address"
        }
      ],
      "payable": false,
      "stateMutability": "view",
      "type": "function",
      "signature": "0x7dc0d1d0"
    },
    {
      "constant": true,
      "inputs": [],
      "name": "owner",
      "outputs": [
        {
          "name": "",
          "type": "address"
        }
      ],
      "payable": false,
      "stateMutability": "view",
      "type": "function",
      "signature": "0x8da5cb5b"
    },
    {
      "constant": true,
      "inputs": [],
      "name": "current_rate",
      "outputs": [
        {
          "name": "",
          "type": "uint256"
        }
      ],
      "payable": false,
      "stateMutability": "view",
      "type": "function",
      "signature": "0xcee40172"
    },
    {
      "constant": true,
      "inputs": [],
      "name": "subscriptions_open",
      "outputs": [
        {
          "name": "",
          "type": "bool"
        }
      ],
      "payable": false,
      "stateMutability": "view",
      "type": "function",
      "signature": "0xd3115ff2"
    },
    {
      "constant": true,
      "inputs": [
        {
          "name": "",
          "type": "uint256"
        }
      ],
      "name": "players",
      "outputs": [
        {
          "name": "name",
          "type": "string"
        },
        {
          "name": "adr",
          "type": "address"
        },
        {
          "name": "bet",
          "type": "bool"
        }
      ],
      "payable": false,
      "stateMutability": "view",
      "type": "function",
      "signature": "0xf71d96cb"
    },
    {
      "inputs": [
        {
          "name": "oracleAdr",
          "type": "address"
        }
      ],
      "payable": false,
      "stateMutability": "nonpayable",
      "type": "constructor",
      "signature": "constructor"
    },
    {
      "anonymous": false,
      "inputs": [
        {
          "indexed": false,
          "name": "player_1",
          "type": "address"
        },
        {
          "indexed": false,
          "name": "player_2",
          "type": "address"
        },
        {
          "indexed": false,
          "name": "current_bet",
          "type": "uint256"
        }
      ],
      "name": "PlayersMatched",
      "type": "event",
      "signature": "0x11de22e162366dbca481c52bf715135afa4931120134310d18d520fee42b202f"
    },
    {
      "anonymous": false,
      "inputs": [
        {
          "indexed": false,
          "name": "message",
          "type": "string"
        }
      ],
      "name": "Losers",
      "type": "event",
      "signature": "0xc2d156a2d5e666a51dfd4988166a1604ce109fe83122d4e6f3110e186cc06fcf"
    },
    {
      "anonymous": false,
      "inputs": [
        {
          "indexed": false,
          "name": "winner",
          "type": "address"
        }
      ],
      "name": "Winner",
      "type": "event",
      "signature": "0x745c90b656b4aafe296c8ca35aeacfe56cb96c90e1d320e5da643fff1051b6c0"
    },
    {
      "anonymous": false,
      "inputs": [
        {
          "indexed": false,
          "name": "message",
          "type": "string"
        }
      ],
      "name": "Draw",
      "type": "event",
      "signature": "0x4de411966911eab10c37d2d2df9d6c4f4f4c8af1a7a80477ffeb448e06466eb3"
    },
    {
      "constant": false,
      "inputs": [
        {
          "name": "name",
          "type": "string"
        },
        {
          "name": "bet",
          "type": "bool"
        }
      ],
      "name": "subscribe",
      "outputs": [],
      "payable": true,
      "stateMutability": "payable",
      "type": "function",
      "signature": "0x19ccd769"
    },
    {
      "constant": false,
      "inputs": [
        {
          "name": "new_bet",
          "type": "uint256"
        }
      ],
      "name": "setBet",
      "outputs": [],
      "payable": false,
      "stateMutability": "nonpayable",
      "type": "function",
      "signature": "0xe8399cc6"
    },
    {
      "constant": false,
      "inputs": [],
      "name": "closeMatch",
      "outputs": [],
      "payable": false,
      "stateMutability": "nonpayable",
      "type": "function",
      "signature": "0xc31af893"
    },
    {
      "constant": false,
      "inputs": [],
      "name": "depositFund",
      "outputs": [],
      "payable": true,
      "stateMutability": "payable",
      "type": "function",
      "signature": "0x8d0d8cb6"
    },
    {
      "constant": false,
      "inputs": [],
      "name": "withdrawFund",
      "outputs": [],
      "payable": false,
      "stateMutability": "nonpayable",
      "type": "function",
      "signature": "0xe07fa3c1"
    }
  ],
  "bytecode": "0x608060405267016345785d8a000060015534801561001c57600080fd5b506040516020806119828339810180604052602081101561003c57600080fd5b8101908080519060200190929190505050336000806101000a81548173ffffffffffffffffffffffffffffffffffffffff021916908373ffffffffffffffffffffffffffffffffffffffff1602179055506001600060146101000a81548160ff02191690831515021790555080600360006101000a81548173ffffffffffffffffffffffffffffffffffffffff021916908373ffffffffffffffffffffffffffffffffffffffff160217905550600360009054906101000a900473ffffffffffffffffffffffffffffffffffffffff1673ffffffffffffffffffffffffffffffffffffffff16635ef9cb4f6040518163ffffffff167c010000000000000000000000000000000000000000000000000000000002815260040160206040518083038186803b15801561016d57600080fd5b505afa158015610181573d6000803e3d6000fd5b505050506040513d602081101561019757600080fd5b8101908080519060200190929190505050600281905550506117c4806101be6000396000f3fe6080604052600436106100ba576000357c0100000000000000000000000000000000000000000000000000000000900463ffffffff16806319ccd769146100bf5780635cc1b40c1461018657806366bec59e146102785780637dc0d1d0146102a35780638d0d8cb6146102fa5780638da5cb5b14610304578063c31af8931461035b578063cee4017214610372578063d3115ff21461039d578063e07fa3c1146103cc578063e8399cc6146103e3578063f71d96cb1461041e575b600080fd5b610184600480360360408110156100d557600080fd5b81019080803590602001906401000000008111156100f257600080fd5b82018360208201111561010457600080fd5b8035906020019184600183028401116401000000008311171561012657600080fd5b91908080601f016020809104026020016040519081016040528093929190818152602001838380828437600081840152601f19601f820116905080830192505050505050509192919290803515159060200190929190505050610510565b005b34801561019257600080fd5b506101bf600480360360208110156101a957600080fd5b8101908080359060200190929190505050610981565b60405180806020018473ffffffffffffffffffffffffffffffffffffffff1673ffffffffffffffffffffffffffffffffffffffff16815260200183151515158152602001828103825285818151815260200191508051906020019080838360005b8381101561023b578082015181840152602081019050610220565b50505050905090810190601f1680156102685780820380516001836020036101000a031916815260200191505b5094505050505060405180910390f35b34801561028457600080fd5b5061028d610a7f565b6040518082815260200191505060405180910390f35b3480156102af57600080fd5b506102b8610a85565b604051808273ffffffffffffffffffffffffffffffffffffffff1673ffffffffffffffffffffffffffffffffffffffff16815260200191505060405180910390f35b610302610aab565b005b34801561031057600080fd5b50610319610aad565b604051808273ffffffffffffffffffffffffffffffffffffffff1673ffffffffffffffffffffffffffffffffffffffff16815260200191505060405180910390f35b34801561036757600080fd5b50610370610ad2565b005b34801561037e57600080fd5b50610387610bb6565b6040518082815260200191505060405180910390f35b3480156103a957600080fd5b506103b2610bbc565b604051808215151515815260200191505060405180910390f35b3480156103d857600080fd5b506103e1610bcf565b005b3480156103ef57600080fd5b5061041c6004803603602081101561040657600080fd5b8101908080359060200190929190505050610cf3565b005b34801561042a57600080fd5b506104576004803603602081101561044157600080fd5b8101908080359060200190929190505050610dc1565b60405180806020018473ffffffffffffffffffffffffffffffffffffffff1673ffffffffffffffffffffffffffffffffffffffff16815260200183151515158152602001828103825285818151815260200191508051906020019080838360005b838110156104d35780820151818401526020810190506104b8565b50505050905090810190601f1680156105005780820380516001836020036101000a031916815260200191505b5094505050505060405180910390f35b6002600580549050111515156105b4576040517f08c379a000000000000000000000000000000000000000000000000000000000815260040180806020018281038252603e8152602001807f54776f20706c617965727320617265207374696c6c20706c6179696e6720776181526020017f697420666f72207468656d20746f20636c6f736520746865206d61746368000081525060400191505060405180910390fd5b60015434141515610653576040517f08c379a000000000000000000000000000000000000000000000000000000000815260040180806020018281038252602f8152602001807f50617373656420616d6f756e7420697320646966666572656e742066726f6d2081526020017f7468652063757272656e7420626574000000000000000000000000000000000081525060400191505060405180910390fd5b61065b61155c565b6060604051908101604052808481526020013373ffffffffffffffffffffffffffffffffffffffff16815260200183151581525090506005819080600181540180825580915050906001820390600052602060002090600202016000909192909190915060008201518160000190805190602001906106db929190611596565b5060208201518160010160006101000a81548173ffffffffffffffffffffffffffffffffffffffff021916908373ffffffffffffffffffffffffffffffffffffffff16021790555060408201518160010160146101000a81548160ff021916908315150217905550505050600560016005805490500381548110151561075d57fe5b9060005260206000209060020201600460006001600580549050038152602001908152602001600020600082018160000190805460018160011615610100020316600290046107ad929190611616565b506001820160009054906101000a900473ffffffffffffffffffffffffffffffffffffffff168160010160006101000a81548173ffffffffffffffffffffffffffffffffffffffff021916908373ffffffffffffffffffffffffffffffffffffffff1602179055506001820160149054906101000a900460ff168160010160146101000a81548160ff0219169083151502179055509050506002600580549050141561097c577f11de22e162366dbca481c52bf715135afa4931120134310d18d520fee42b202f6004600080815260200190815260200160002060010160009054906101000a900473ffffffffffffffffffffffffffffffffffffffff16600460006001815260200190815260200160002060010160009054906101000a900473ffffffffffffffffffffffffffffffffffffffff16600154604051808473ffffffffffffffffffffffffffffffffffffffff1673ffffffffffffffffffffffffffffffffffffffff1681526020018373ffffffffffffffffffffffffffffffffffffffff1673ffffffffffffffffffffffffffffffffffffffff168152602001828152602001935050505060405180910390a160008060146101000a81548160ff0219169083151502179055505b505050565b60058181548110151561099057fe5b9060005260206000209060020201600091509050806000018054600181600116156101000203166002900480601f016020809104026020016040519081016040528092919081815260200182805460018160011615610100020316600290048015610a3c5780601f10610a1157610100808354040283529160200191610a3c565b820191906000526020600020905b815481529060010190602001808311610a1f57829003601f168201915b5050505050908060010160009054906101000a900473ffffffffffffffffffffffffffffffffffffffff16908060010160149054906101000a900460ff16905083565b60015481565b600360009054906101000a900473ffffffffffffffffffffffffffffffffffffffff1681565b565b6000809054906101000a900473ffffffffffffffffffffffffffffffffffffffff1681565b60001515600060149054906101000a900460ff161515141515610b5d576040517f08c379a00000000000000000000000000000000000000000000000000000000081526004018080602001828103825260138152602001807f556e617574686f72697a656420616374696f6e0000000000000000000000000081525060200191505060405180910390fd5b6000610b67610eb0565b905060006002548211610b7b576000610b7e565b60015b9050610b898161101b565b6001600060146101000a81548160ff02191690831515021790555060056000610bb2919061169d565b5050565b60025481565b600060149054906101000a900460ff1681565b6000809054906101000a900473ffffffffffffffffffffffffffffffffffffffff1673ffffffffffffffffffffffffffffffffffffffff163373ffffffffffffffffffffffffffffffffffffffff16141515610c93576040517f08c379a00000000000000000000000000000000000000000000000000000000081526004018080602001828103825260138152602001807f556e617574686f72697a656420616374696f6e0000000000000000000000000081525060200191505060405180910390fd5b3373ffffffffffffffffffffffffffffffffffffffff166108fc3073ffffffffffffffffffffffffffffffffffffffff16319081150290604051600060405180830381858888f19350505050158015610cf0573d6000803e3d6000fd5b50565b6000809054906101000a900473ffffffffffffffffffffffffffffffffffffffff1673ffffffffffffffffffffffffffffffffffffffff163373ffffffffffffffffffffffffffffffffffffffff16141515610db7576040517f08c379a00000000000000000000000000000000000000000000000000000000081526004018080602001828103825260138152602001807f556e617574686f72697a656420616374696f6e0000000000000000000000000081525060200191505060405180910390fd5b8060018190555050565b6004602052806000526040600020600091509050806000018054600181600116156101000203166002900480601f016020809104026020016040519081016040528092919081815260200182805460018160011615610100020316600290048015610e6d5780601f10610e4257610100808354040283529160200191610e6d565b820191906000526020600020905b815481529060010190602001808311610e5057829003601f168201915b5050505050908060010160009054906101000a900473ffffffffffffffffffffffffffffffffffffffff16908060010160149054906101000a900460ff16905083565b600080600360009054906101000a900473ffffffffffffffffffffffffffffffffffffffff1673ffffffffffffffffffffffffffffffffffffffff16635ef9cb4f6040518163ffffffff167c010000000000000000000000000000000000000000000000000000000002815260040160206040518083038186803b158015610f3757600080fd5b505afa158015610f4b573d6000803e3d6000fd5b505050506040513d6020811015610f6157600080fd5b810190808051906020019092919050505090506002548114151515611014576040517f08c379a000000000000000000000000000000000000000000000000000000000815260040180806020018281038252603f8152602001807f4f7261636c65206973206e6f7420757064617465207769746820746865206c6181526020017f7465737420696e666f2c20636f6d65206261636b20696e2061207768696c650081525060400191505060405180910390fd5b8091505090565b8015156004600080815260200190815260200160002060010160149054906101000a900460ff1615151480156110785750801515600460006001815260200190815260200160002060010160149054906101000a900460ff161515145b15611227576004600080815260200190815260200160002060010160009054906101000a900473ffffffffffffffffffffffffffffffffffffffff1673ffffffffffffffffffffffffffffffffffffffff166108fc60026001548115156110db57fe5b049081150290604051600060405180830381858888f19350505050158015611107573d6000803e3d6000fd5b50600460006001815260200190815260200160002060010160009054906101000a900473ffffffffffffffffffffffffffffffffffffffff1673ffffffffffffffffffffffffffffffffffffffff166108fc600260015481151561116757fe5b049081150290604051600060405180830381858888f19350505050158015611193573d6000803e3d6000fd5b507f4de411966911eab10c37d2d2df9d6c4f4f4c8af1a7a80477ffeb448e06466eb360405180806020018281038252603e8152602001807f44726177206561636820706c617965722077696c6c207265636965766520746881526020017f652073616d6520616d6f756e74202831206265742073706c697474656429000081525060400191505060405180910390a1611559565b8015156004600080815260200190815260200160002060010160149054906101000a900460ff1615151415611376576004600080815260200190815260200160002060010160009054906101000a900473ffffffffffffffffffffffffffffffffffffffff1673ffffffffffffffffffffffffffffffffffffffff166108fc6001546002029081150290604051600060405180830381858888f193505050501580156112d7573d6000803e3d6000fd5b507f745c90b656b4aafe296c8ca35aeacfe56cb96c90e1d320e5da643fff1051b6c06004600080815260200190815260200160002060010160009054906101000a900473ffffffffffffffffffffffffffffffffffffffff16604051808273ffffffffffffffffffffffffffffffffffffffff1673ffffffffffffffffffffffffffffffffffffffff16815260200191505060405180910390a1611558565b801515600460006001815260200190815260200160002060010160149054906101000a900460ff16151514156114c857600460006001815260200190815260200160002060010160009054906101000a900473ffffffffffffffffffffffffffffffffffffffff1673ffffffffffffffffffffffffffffffffffffffff166108fc6001546002029081150290604051600060405180830381858888f19350505050158015611428573d6000803e3d6000fd5b507f745c90b656b4aafe296c8ca35aeacfe56cb96c90e1d320e5da643fff1051b6c0600460006001815260200190815260200160002060010160009054906101000a900473ffffffffffffffffffffffffffffffffffffffff16604051808273ffffffffffffffffffffffffffffffffffffffff1673ffffffffffffffffffffffffffffffffffffffff16815260200191505060405180910390a1611557565b7fc2d156a2d5e666a51dfd4988166a1604ce109fe83122d4e6f3110e186cc06fcf6040518080602001828103825260228152602001807f4e6f626f64792077696e2c20636f6e7472616374206b6565702074686520626581526020017f747300000000000000000000000000000000000000000000000000000000000081525060400191505060405180910390a15b5b5b50565b60606040519081016040528060608152602001600073ffffffffffffffffffffffffffffffffffffffff1681526020016000151581525090565b828054600181600116156101000203166002900490600052602060002090601f016020900481019282601f106115d757805160ff1916838001178555611605565b82800160010185558215611605579182015b828111156116045782518255916020019190600101906115e9565b5b50905061161291906116c1565b5090565b828054600181600116156101000203166002900490600052602060002090601f016020900481019282601f1061164f578054855561168c565b8280016001018555821561168c57600052602060002091601f016020900482015b8281111561168b578254825591600101919060010190611670565b5b50905061169991906116c1565b5090565b50805460008255600202906000526020600020908101906116be91906116e6565b50565b6116e391905b808211156116df5760008160009055506001016116c7565b5090565b90565b61174d91905b8082111561174957600080820160006117059190611750565b6001820160006101000a81549073ffffffffffffffffffffffffffffffffffffffff02191690556001820160146101000a81549060ff0219169055506002016116ec565b5090565b90565b50805460018160011615610100020316600290046000825580601f106117765750611795565b601f01602090049060005260206000209081019061179491906116c1565b5b5056fea165627a7a72305820514d13119991485dedf64227d7314fa97abd40e57c0cc9e5dcbab2be5cb5e9180029",
  "source": "pragma solidity <0.6.0;\r\n\r\nimport \"./Oracle.sol\";\r\n\r\ncontract Bidder {\r\n    address public owner;\r\n    bool public subscriptions_open;\r\n    uint public current_bet = 100000000000000000;\r\n    uint public current_rate;\r\n    Oracle public oracle;\r\n\r\n    event PlayersMatched(address player_1, address player_2, uint current_bet);\r\n    event Losers(string message);\r\n    event Winner(address winner);\r\n    event Draw(string message);\r\n\r\n    struct Player {\r\n        string name;\r\n        address payable adr;\r\n        bool bet;\r\n    }\r\n\r\n    modifier restricted() {\r\n        require(msg.sender == owner, \"Unauthorized action\");\r\n        _;\r\n    }\r\n\r\n    modifier closedSubscriptions() {\r\n        require(subscriptions_open == false, \"Unauthorized action\");\r\n        _;\r\n    }\r\n\r\n    mapping(uint => Player) public players;\r\n    Player[] public playersArray;\r\n\r\n    constructor(address oracleAdr) public {\r\n        owner = msg.sender;\r\n        subscriptions_open = true;\r\n        oracle = Oracle(oracleAdr);\r\n        current_rate = oracle.last_exchange_rate();\r\n    }\r\n\r\n    function subscribe(string memory name, bool bet) public payable {\r\n        require(playersArray.length <= 2, \"Two players are still playing wait for them to close the match\");\r\n        require(msg.value == current_bet, \"Passed amount is different from the current bet\");\r\n\r\n        Player memory tmp = Player(name, msg.sender, bet);\r\n        playersArray.push(tmp);\r\n        players[playersArray.length-1] = playersArray[playersArray.length-1];\r\n\r\n        if(playersArray.length == 2) {\r\n            emit PlayersMatched(players[0].adr, players[1].adr, current_bet);\r\n            subscriptions_open = false;\r\n        }\r\n    }\r\n\r\n    function setBet(uint new_bet) public restricted {\r\n        current_bet = new_bet;\r\n    }\r\n\r\n    function closeMatch() closedSubscriptions public {\r\n        uint new_rate = checkLatestExchangeRate();\r\n\r\n        bool result = new_rate > current_rate ? true : false;\r\n\r\n        checkWinLos(result);\r\n\r\n        subscriptions_open = true;\r\n\r\n        delete playersArray;\r\n    }\r\n\r\n    function checkWinLos(bool result) internal {\r\n        if(players[0].bet == result && players[1].bet == result) {\r\n            //draw\r\n            players[0].adr.transfer(current_bet/2);\r\n            players[1].adr.transfer(current_bet/2);\r\n            emit Draw(\"Draw each player will recieve the same amount (1 bet splitted)\");\r\n\r\n        } else if (players[0].bet == result) {\r\n            //player 1 wins\r\n\r\n            players[0].adr.transfer(2*current_bet);\r\n            emit Winner(players[0].adr);\r\n        } else if (players[1].bet == result) {\r\n            //player 2 wins\r\n\r\n            players[1].adr.transfer(2*current_bet);\r\n            emit Winner(players[1].adr);\r\n        }\r\n        else {\r\n            //nobody win\r\n\r\n            emit Losers(\"Nobody win, contract keep the bets\");\r\n        }\r\n    }\r\n\r\n    function checkLatestExchangeRate() internal view returns(uint) {\r\n        uint tmp = oracle.last_exchange_rate();\r\n        require(tmp != current_rate, \"Oracle is not update with the latest info, come back in a while\");\r\n        return tmp;\r\n    }\r\n\r\n    function depositFund() public payable {\r\n        return;\r\n    }\r\n\r\n    function withdrawFund() public restricted {\r\n        return msg.sender.transfer(address(this).balance);\r\n    }\r\n}\r\n",
  "sourcePath": "C:/Users/mauri/Desktop/training_class_solidity/contracts/Bidder.sol",
  "compiler": {
    "name": "solc",
    "version": "0.5.0+commit.1d4f565a.Emscripten.clang"
  },
  "schemaVersion": "3.0.2",
  "updatedAt": "2019-02-26T22:55:13.940Z",
  "devdoc": {
    "methods": {}
  },
  "userdoc": {
    "methods": {}
  }
}