{
  "contractName": "Player",
  "abi": [
    {
      "constant": true,
      "inputs": [],
      "name": "name",
      "outputs": [
        {
          "name": "",
          "type": "string"
        }
      ],
      "payable": false,
      "stateMutability": "view",
      "type": "function"
    },
    {
      "constant": true,
      "inputs": [],
      "name": "adr",
      "outputs": [
        {
          "name": "",
          "type": "address"
        }
      ],
      "payable": false,
      "stateMutability": "view",
      "type": "function"
    },
    {
      "constant": true,
      "inputs": [],
      "name": "currentOracleRate",
      "outputs": [
        {
          "name": "",
          "type": "uint256"
        }
      ],
      "payable": false,
      "stateMutability": "view",
      "type": "function"
    },
    {
      "constant": true,
      "inputs": [],
      "name": "betAmount",
      "outputs": [
        {
          "name": "",
          "type": "uint256"
        }
      ],
      "payable": false,
      "stateMutability": "view",
      "type": "function"
    },
    {
      "constant": true,
      "inputs": [],
      "name": "betChoice",
      "outputs": [
        {
          "name": "",
          "type": "bool"
        }
      ],
      "payable": false,
      "stateMutability": "view",
      "type": "function"
    },
    {
      "inputs": [
        {
          "name": "_adr",
          "type": "address"
        },
        {
          "name": "_betAmount",
          "type": "uint256"
        },
        {
          "name": "_currentOracleRate",
          "type": "uint256"
        },
        {
          "name": "_name",
          "type": "string"
        },
        {
          "name": "_betChoice",
          "type": "bool"
        }
      ],
      "payable": false,
      "stateMutability": "nonpayable",
      "type": "constructor"
    },
    {
      "constant": true,
      "inputs": [
        {
          "name": "oracleRate",
          "type": "uint256"
        }
      ],
      "name": "checkGame",
      "outputs": [
        {
          "name": "",
          "type": "bool"
        }
      ],
      "payable": false,
      "stateMutability": "view",
      "type": "function"
    }
  ],
  "bytecode": "0x608060405234801561001057600080fd5b50604051610594380380610594833981018060405260a081101561003357600080fd5b81019080805190602001909291908051906020019092919080519060200190929190805164010000000081111561006957600080fd5b8281019050602081018481111561007f57600080fd5b815185600182028301116401000000008211171561009c57600080fd5b505092919060200180519060200190929190505050846000806101000a81548173ffffffffffffffffffffffffffffffffffffffff021916908373ffffffffffffffffffffffffffffffffffffffff1602179055508360018190555082600281905550816003908051906020019061011592919061013a565b5080600460006101000a81548160ff02191690831515021790555050505050506101df565b828054600181600116156101000203166002900490600052602060002090601f016020900481019282601f1061017b57805160ff19168380011785556101a9565b828001600101855582156101a9579182015b828111156101a857825182559160200191906001019061018d565b5b5090506101b691906101ba565b5090565b6101dc91905b808211156101d85760008160009055506001016101c0565b5090565b90565b6103a6806101ee6000396000f3fe608060405260043610610078576000357c0100000000000000000000000000000000000000000000000000000000900463ffffffff16806301e3eb271461007d57806306fdde03146100d05780630aca7f9514610160578063ac765419146101b7578063d24257c0146101e2578063e0b85dcf1461020d575b600080fd5b34801561008957600080fd5b506100b6600480360360208110156100a057600080fd5b810190808035906020019092919050505061023c565b604051808215151515815260200191505060405180910390f35b3480156100dc57600080fd5b506100e5610298565b6040518080602001828103825283818151815260200191508051906020019080838360005b8381101561012557808201518184015260208101905061010a565b50505050905090810190601f1680156101525780820380516001836020036101000a031916815260200191505b509250505060405180910390f35b34801561016c57600080fd5b50610175610336565b604051808273ffffffffffffffffffffffffffffffffffffffff1673ffffffffffffffffffffffffffffffffffffffff16815260200191505060405180910390f35b3480156101c357600080fd5b506101cc61035b565b6040518082815260200191505060405180910390f35b3480156101ee57600080fd5b506101f7610361565b6040518082815260200191505060405180910390f35b34801561021957600080fd5b50610222610367565b604051808215151515815260200191505060405180910390f35b60008160025411801561025c5750600460009054906101000a900460ff16155b8061028057508160025410801561027f5750600460009054906101000a900460ff165b5b1561028e5760019050610293565b600090505b919050565b60038054600181600116156101000203166002900480601f01602080910402602001604051908101604052809291908181526020018280546001816001161561010002031660029004801561032e5780601f106103035761010080835404028352916020019161032e565b820191906000526020600020905b81548152906001019060200180831161031157829003601f168201915b505050505081565b6000809054906101000a900473ffffffffffffffffffffffffffffffffffffffff1681565b60025481565b60015481565b600460009054906101000a900460ff168156fea165627a7a7230582064463bfa8dee161611692839cc714499bb92e25abca1f77eb6e996dfe3c25b610029",
  "source": "pragma solidity <0.6.0;\r\n\r\ncontract Player {\r\n  address payable public adr;\r\n\r\n  uint public betAmount;\r\n  uint public currentOracleRate;\r\n\r\n  string public name;\r\n\r\n  bool public betChoice;\r\n\r\n  constructor(address payable _adr, uint _betAmount, uint _currentOracleRate, string memory _name, bool _betChoice) public {\r\n    adr = _adr;\r\n    betAmount = _betAmount;\r\n    currentOracleRate = _currentOracleRate;\r\n    name = _name;\r\n    betChoice = _betChoice;\r\n  }\r\n\r\n  function checkGame(\r\n      uint oracleRate\r\n  ) public view returns(bool) {\r\n      if(\r\n          currentOracleRate > oracleRate && !betChoice ||\r\n          currentOracleRate < oracleRate && betChoice\r\n      ) {\r\n          return true;\r\n      }\r\n      return false;\r\n  }\r\n}\r\n",
  "sourcePath": "C:\\Users\\mauri\\Desktop\\signaturit\\training_class_solidity\\contracts\\Player.sol",
  "compiler": {
    "name": "solc",
    "version": "0.5.0+commit.1d4f565a.Emscripten.clang"
  },
  "schemaVersion": "3.0.2",
  "updatedAt": "2019-06-17T07:28:16.705Z",
  "devdoc": {
    "methods": {}
  },
  "userdoc": {
    "methods": {}
  }
}